{
  "contractName": "DataStorage",
  "abi": [
    {
      "anonymous": false,
      "inputs": [
        {
          "indexed": true,
          "internalType": "uint256",
          "name": "id",
          "type": "uint256"
        },
        {
          "indexed": false,
          "internalType": "string",
          "name": "fileName",
          "type": "string"
        },
        {
          "indexed": false,
          "internalType": "uint256",
          "name": "timestamp",
          "type": "uint256"
        }
      ],
      "name": "ZipFileStored",
      "type": "event"
    },
    {
      "constant": true,
      "inputs": [],
      "name": "fileCount",
      "outputs": [
        {
          "internalType": "uint256",
          "name": "",
          "type": "uint256"
        }
      ],
      "payable": false,
      "stateMutability": "view",
      "type": "function"
    },
    {
      "constant": true,
      "inputs": [
        {
          "internalType": "uint256",
          "name": "",
          "type": "uint256"
        }
      ],
      "name": "storedFiles",
      "outputs": [
        {
          "internalType": "string",
          "name": "fileName",
          "type": "string"
        },
        {
          "internalType": "string",
          "name": "encodedZipFile",
          "type": "string"
        },
        {
          "internalType": "uint256",
          "name": "timestamp",
          "type": "uint256"
        }
      ],
      "payable": false,
      "stateMutability": "view",
      "type": "function"
    },
    {
      "constant": false,
      "inputs": [
        {
          "internalType": "string",
          "name": "_fileName",
          "type": "string"
        },
        {
          "internalType": "string",
          "name": "_zipData",
          "type": "string"
        }
      ],
      "name": "storeZipFile",
      "outputs": [],
      "payable": false,
      "stateMutability": "nonpayable",
      "type": "function"
    },
    {
      "constant": true,
      "inputs": [],
      "name": "getFileNames",
      "outputs": [
        {
          "internalType": "string[]",
          "name": "",
          "type": "string[]"
        },
        {
          "internalType": "uint256[]",
          "name": "",
          "type": "uint256[]"
        }
      ],
      "payable": false,
      "stateMutability": "view",
      "type": "function"
    },
    {
      "constant": true,
      "inputs": [
        {
          "internalType": "uint256",
          "name": "_fileId",
          "type": "uint256"
        }
      ],
      "name": "getZipFile",
      "outputs": [
        {
          "internalType": "string",
          "name": "",
          "type": "string"
        },
        {
          "internalType": "uint256",
          "name": "",
          "type": "uint256"
        }
      ],
      "payable": false,
      "stateMutability": "view",
      "type": "function"
    }
  ],
  "bytecode": "0x60806040526001805534801561001457600080fd5b50610c4b806100246000396000f3fe608060405234801561001057600080fd5b50600436106100575760003560e01c8063439535191461005c578063bd8b09281461007a578063bfcd5289146100ac578063eae67627146100cb578063fcd5e1b1146100fc575b600080fd5b610064610118565b6040516100719190610a76565b60405180910390f35b610094600480360361008f9190810190610779565b61011e565b6040516100a393929190610a11565b60405180910390f35b6100b4610278565b6040516100c29291906109aa565b60405180910390f35b6100e560048036036100e09190810190610779565b610414565b6040516100f39291906109e1565b60405180910390f35b6101166004803603610111919081019061070d565b610537565b005b60015481565b6000602052806000526040600020600091509050806000018054600181600116156101000203166002900480601f0160208091040260200160405190810160405280929190818152602001828054600181600116156101000203166002900480156101ca5780601f1061019f576101008083540402835291602001916101ca565b820191906000526020600020905b8154815290600101906020018083116101ad57829003601f168201915b505050505090806001018054600181600116156101000203166002900480601f0160208091040260200160405190810160405280929190818152602001828054600181600116156101000203166002900480156102685780601f1061023d57610100808354040283529160200191610268565b820191906000526020600020905b81548152906001019060200180831161024b57829003601f168201915b5050505050908060020154905083565b606080606060018054036040519080825280602002602001820160405280156102b557816020015b60608152602001906001900390816102a05790505b509050606060018054036040519080825280602002602001820160405280156102ed5781602001602082028038833980820191505090505b5090506000600190505b600154811015610407576000808281526020019081526020016000206000018054600181600116156101000203166002900480601f0160208091040260200160405190810160405280929190818152602001828054600181600116156101000203166002900480156103aa5780601f1061037f576101008083540402835291602001916103aa565b820191906000526020600020905b81548152906001019060200180831161038d57829003601f168201915b50505050508360018303815181106103be57fe5b6020026020010181905250600080828152602001908152602001600020600201548260018303815181106103ee57fe5b60200260200101818152505080806001019150506102f7565b5081819350935050509091565b606060008083118015610428575060015483105b610467576040517f08c379a000000000000000000000000000000000000000000000000000000000815260040161045e90610a56565b60405180910390fd5b60008084815260200190815260200160002060010160008085815260200190815260200160002060020154818054600181600116156101000203166002900480601f0160208091040260200160405190810160405280929190818152602001828054600181600116156101000203166002900480156105275780601f106104fc57610100808354040283529160200191610527565b820191906000526020600020905b81548152906001019060200180831161050a57829003601f168201915b5050505050915091509150915091565b604051806060016040528083815260200182815260200142815250600080600154815260200190815260200160002060008201518160000190805190602001906105829291906105ff565b50602082015181600101908051906020019061059f9291906105ff565b50604082015181600201559050506001547f2053d1d9d1f1089686bedc7ba22bd476caa9ec5c3c6df12865d2fe4d22f0320e83426040516105e19291906109e1565b60405180910390a26001600081548092919060010191905055505050565b828054600181600116156101000203166002900490600052602060002090601f016020900481019282601f1061064057805160ff191683800117855561066e565b8280016001018555821561066e579182015b8281111561066d578251825591602001919060010190610652565b5b50905061067b919061067f565b5090565b6106a191905b8082111561069d576000816000905550600101610685565b5090565b90565b600082601f8301126106b557600080fd5b81356106c86106c382610abe565b610a91565b915080825260208301602083018583830111156106e457600080fd5b6106ef838284610b9e565b50505092915050565b60008135905061070781610bf1565b92915050565b6000806040838503121561072057600080fd5b600083013567ffffffffffffffff81111561073a57600080fd5b610746858286016106a4565b925050602083013567ffffffffffffffff81111561076357600080fd5b61076f858286016106a4565b9150509250929050565b60006020828403121561078b57600080fd5b6000610799848285016106f8565b91505092915050565b60006107ae83836108da565b905092915050565b60006107c2838361098c565b60208301905092915050565b60006107d982610b0a565b6107e38185610b50565b9350836020820285016107f585610aea565b8060005b85811015610831578484038952815161081285826107a2565b945061081d83610b36565b925060208a019950506001810190506107f9565b50829750879550505050505092915050565b600061084e82610b15565b6108588185610b61565b935061086383610afa565b8060005b8381101561089457815161087b88826107b6565b975061088683610b43565b925050600181019050610867565b5085935050505092915050565b60006108ac82610b2b565b6108b68185610b83565b93506108c6818560208601610bad565b6108cf81610be0565b840191505092915050565b60006108e582610b20565b6108ef8185610b72565b93506108ff818560208601610bad565b61090881610be0565b840191505092915050565b600061091e82610b20565b6109288185610b83565b9350610938818560208601610bad565b61094181610be0565b840191505092915050565b6000610959600f83610b83565b91507f496e76616c69642066696c6520494400000000000000000000000000000000006000830152602082019050919050565b61099581610b94565b82525050565b6109a481610b94565b82525050565b600060408201905081810360008301526109c481856107ce565b905081810360208301526109d88184610843565b90509392505050565b600060408201905081810360008301526109fb81856108a1565b9050610a0a602083018461099b565b9392505050565b60006060820190508181036000830152610a2b8186610913565b90508181036020830152610a3f8185610913565b9050610a4e604083018461099b565b949350505050565b60006020820190508181036000830152610a6f8161094c565b9050919050565b6000602082019050610a8b600083018461099b565b92915050565b6000604051905081810181811067ffffffffffffffff82111715610ab457600080fd5b8060405250919050565b600067ffffffffffffffff821115610ad557600080fd5b601f19601f8301169050602081019050919050565b6000819050602082019050919050565b6000819050602082019050919050565b600081519050919050565b600081519050919050565b600081519050919050565b600081519050919050565b6000602082019050919050565b6000602082019050919050565b600082825260208201905092915050565b600082825260208201905092915050565b600082825260208201905092915050565b600082825260208201905092915050565b6000819050919050565b82818337600083830152505050565b60005b83811015610bcb578082015181840152602081019050610bb0565b83811115610bda576000848401525b50505050565b6000601f19601f8301169050919050565b610bfa81610b94565b8114610c0557600080fd5b5056fea365627a7a723158205df46fc6b87d9c6ff33fc025a36ce4a4c848edb9943c23e611bb5662e6ebcf456c6578706572696d656e74616cf564736f6c63430005100040",
  "source": "// SPDX-License-Identifier: MIT\npragma solidity >=0.5.0 <0.9.0;\npragma experimental ABIEncoderV2;\n\ncontract DataStorage {\n    struct FileData {\n        string fileName;\n        string encodedZipFile;\n        uint256 timestamp; // Added timestamp for storing time and date\n    }\n\n    mapping(uint256 => FileData) public storedFiles;\n    uint256 public fileCount = 1; // Start IDs from 1\n\n    event ZipFileStored(uint256 indexed id, string fileName, uint256 timestamp);\n\n    function storeZipFile(string memory _fileName, string memory _zipData) public {\n        storedFiles[fileCount] = FileData(_fileName, _zipData, block.timestamp);\n        emit ZipFileStored(fileCount, _fileName, block.timestamp);\n        fileCount++;\n    }\n\n    function getFileNames() public view returns (string[] memory, uint256[] memory) {\n        string[] memory fileNames = new string[](fileCount - 1);\n        uint256[] memory timestamps = new uint256[](fileCount - 1);\n        \n        for (uint256 i = 1; i < fileCount; i++) {\n            fileNames[i - 1] = storedFiles[i].fileName;\n            timestamps[i - 1] = storedFiles[i].timestamp;\n        }\n        \n        return (fileNames, timestamps);\n    }\n\n    function getZipFile(uint256 _fileId) public view returns (string memory, uint256) {\n        require(_fileId > 0 && _fileId < fileCount, \"Invalid file ID\");\n        return (storedFiles[_fileId].encodedZipFile, storedFiles[_fileId].timestamp);\n    }\n}\n",
  "sourcePath": "C:\\Users\\user\\Documents\\GitHub\\Final_Year\\Blockchain_component - Copy (2)\\contracts\\DataStorage.sol",
  "compiler": {
    "name": "solc",
    "version": "0.5.16+commit.9c3226ce.Emscripten.clang"
  },
  "schemaVersion": "3.4.16",
  "updatedAt": "2025-03-16T07:17:59.089Z",
  "networkType": "ethereum",
  "devdoc": {
    "methods": {}
  },
  "userdoc": {
    "methods": {}
  }
}